:100000000C9462000C948A000C948A000C948A0070
:100010000C948A000C948A000C948A000C948A0038
:100020000C948A000C948A000C948A000C948A0028
:100030000C948A000C948A000C948A000C948A0018
:100040000C940F030C948A000C948A000C948A0080
:100050000C948A000C948A000C948A000C948A00F8
:100060000C948A000C948A000000000024002700F1
:100070002A0000000000250028002B0000000000DE
:1000800023002600290004040404040404040202DA
:100090000202020203030303030301020408102007
:1000A0004080010204081020010204081020000012
:1000B0000008000201000003040700000000000027
:1000C0000000E60311241FBECFEFD8E0DEBFCDBF96
:1000D00011E0A0E0B1E0E8E1F8E002C005900D9287
:1000E000A432B107D9F721E0A4E2B1E001C01D922A
:1000F000A534B207E1F710E0C2E6D0E004C02197D2
:10010000FE010E940404C136D107C9F70E945903B9
:100110000C940A040C940000AF92BF92CF92DF922D
:10012000EF92FF920F931F93CF93DF936C017B01AC
:100130008B01040F151FEB015E01AE18BF08C0173D
:10014000D10759F06991D601ED91FC910190F081B0
:10015000E02DC6010995892B79F7C501DF91CF9173
:100160001F910F91FF90EF90DF90CF90BF90AF90D5
:100170000895833081F028F4813099F08230A9F01D
:1001800008958730A9F08830C9F08430B1F48091A7
:1001900080008F7D03C0809180008F7780938000E6
:1001A000089584B58F7784BD089584B58F7DFBCF86
:1001B0008091B0008F778093B00008958091B00057
:1001C0008F7DF9CFCF93DF93E0EBF0E08491ECE902
:1001D000F0E0D491E8E8F0E0C491CC23A1F08111E3
:1001E0000E94B900EC2FF0E0EE0FFF1FE458FF4F24
:1001F000A591B491EC91ED2381E090E009F480E0C9
:10020000DF91CF91089580E090E0FACF1F93CF93D4
:10021000DF93282F30E0F901E255FF4F8491F90177
:10022000E656FF4FD491F901EA57FF4FC491CC2312
:10023000A9F0162F81110E94B900EC2FF0E0EE0F0B
:10024000FF1FEE58FF4FA591B4918FB7F894EC9132
:10025000111108C0D095DE23DC938FBFDF91CF91C1
:100260001F910895DE2BF8CFCF93DF9390E0FC0130
:10027000E656FF4F24918A579F4FFC0184918823B3
:10028000D1F090E0880F991FFC01E859FF4FA5912C
:10029000B491FC01EE58FF4FC591D49161110EC08D
:1002A0009FB7F8948C91E22FE0958E238C93288150
:1002B000E223E8839FBFDF91CF9108958FB7F89431
:1002C000EC91E22BEC938FBFF6CF3FB7F89480917F
:1002D000290190912A01A0912B01B0912C0126B502
:1002E000A89B05C02F3F19F00196A11DB11D3FBF6E
:1002F000BA2FA92F982F8827BC01CD01620F711D3D
:10030000811D911D42E0660F771F881F991F4A9536
:10031000D1F708958F929F92AF92BF92CF92DF92C2
:10032000EF92FF920E9465014B015C0184EFC82EA1
:10033000DD24D394E12CF12C0E9465016819790920
:100340008A099B09683E734081059105A8F321E065
:10035000C21AD108E108F10888EE880E83E0981EE1
:10036000A11CB11CC114D104E104F10429F7FF90D0
:10037000EF90DF90CF90BF90AF909F908F900895B7
:10038000089590E080E00895CF93DF93EC0160E062
:100390008E810E94060161E08E810E94060160E06C
:1003A0008E810E9406018BE891E00197F1F7DF91C1
:1003B000CF910895CF92DF92EF92FF920F931F9308
:1003C000CF93DF936C017C0187E0E80EF11CD0E055
:1003D000C0E0062F10E0B8010C2E02C0759567959D
:1003E0000A94E2F76170F70181917F010E94060192
:1003F0002196C430D10579F7C601DF91CF911F91C5
:100400000F91FF90EF90DF90CF900C94C401CF92AA
:10041000DF92EF92FF920F931F93CF93DF93EC0144
:10042000F62E642F8C810E9406018D818F3F19F07A
:1004300060E00E9406010F2D10E08F8584FF25C02B
:100440006E0187E0C80ED11CF12CE12CB8010E2CF6
:1004500002C0759567950A94E2F76170F601819183
:100460006F010E940601FFEFEF1AFF0A88E0E8160D
:10047000F10461F7CE01DF91CF911F910F91FF90B1
:10048000EF90DF90CF900C94C401B80184E0759593
:1004900067958A95E1F7CE010E94DA016F2DCE01B2
:1004A000DF91CF911F910F91FF90EF90DF90CF9050
:1004B0000C94DA0140E0682F8DE291E00C94070281
:1004C00081E00E945A028BE39FE10197F1F70895C2
:1004D000CF93DF93823029F490913C019860909300
:1004E0003C01809340011092410180E480934201DD
:1004F00080E18093430180E58093440161E0809135
:1005000031010E943401809132018F3F19F061E086
:100510000E94340161E0809133010E943401CDE2F8
:10052000D1E09E012D52314080913C0184FD0BC0F1
:1005300084E090E021962817390744F461E08E8129
:100540000E943401EECF88E090E0F4CF8BE39DE091
:100550000197F1F760E0809131010E94060160E0AF
:10056000809133010E940601809132018F3F19F082
:1005700060E00E94060180913C0184FD34C063E08C
:100580008DE291E00E94DA01CBE4D6E4CE0101973E
:10059000F1F763E08DE291E00E94DA012197F1F733
:1005A00063E08DE291E00E94DA0183E592E0019739
:1005B000F1F762E08DE291E00E94DA0180913C0166
:1005C00080620E945A0284E080933D018CE00E9488
:1005D0005A020E94600282E080933E0186E0DF9131
:1005E000CF910C945A0280620E945A028BE496E4E6
:1005F0000197F1F780913C0180620E945A0283E5E5
:1006000092E00197F1F780913C0180620E945A02CA
:10061000D5CF41E00E94070281E090E008951F924B
:100620000F920FB60F9211242F933F938F939F93A6
:10063000AF93BF938091250190912601A09127014E
:10064000B09128013091240123E0230F2D3758F574
:100650000196A11DB11D2093240180932501909343
:100660002601A0932701B093280180912901909140
:100670002A01A0912B01B0912C010196A11DB11D61
:100680008093290190932A01A0932B01B0932C0110
:10069000BF91AF919F918F913F912F910F900FBE7E
:1006A0000F901F90189526E8230F0296A11DB11DEB
:1006B000D2CF789484B5826084BD84B5816084BDD6
:1006C00085B5826085BD85B5816085BD80916E00F0
:1006D000816080936E001092810080918100826021
:1006E000809381008091810081608093810080915E
:1006F00080008160809380008091B100846080934D
:10070000B1008091B00081608093B00080917A0048
:10071000846080937A0080917A00826080937A006E
:1007200080917A00816080937A0080917A0080685D
:1007300080937A001092C10060E082E00E94340150
:1007400082E00E94680200E010E0E1E08091400158
:100750008111E0E0E195F0E0E35DFE4F84898F5F79
:1007600080680E945A020E94E200892BC9F443E18A
:1007700050E06CE071E08DE291E00E948C00C3E1FA
:10078000D0E088E10E945A020E948A012197C9F7AD
:100790000E94600201151105C1F20E940000D5CF30
:1007A0000E94E2000197B1F743E050E060E271E09F
:1007B0008DE291E00E948C00C4E0D0E088E10E94CC
:1007C0005A020E948A012197C9F7E2CFEDE2F1E0D7
:1007D0001382128284E091E0918380838CE0848391
:1007E0008FEF85838BE0868389E0878388E080872D
:1007F00087E0818786E082871386148615861686B1
:10080000178681E00C946802EE0FFF1F0590F491AB
:08081000E02D0994F894FFCFDC
:100818000000000009038C00C101C00157454C438A
:100828004F4D4520544F204D5920574F524C4400AE
:04083800627965007C
:00000001FF
